{
  "address": "0x8214C7C10f9dbE3B09Bd1D950C6C4d8FB1f8a538",
  "abi": [
    {
      "inputs": [
        {
          "internalType": "address",
          "name": "priceFeedAddress",
          "type": "address"
        }
      ],
      "stateMutability": "nonpayable",
      "type": "constructor"
    },
    {
      "inputs": [
        {
          "internalType": "address",
          "name": "",
          "type": "address"
        }
      ],
      "name": "addressToAmountFunded",
      "outputs": [
        {
          "internalType": "uint256",
          "name": "",
          "type": "uint256"
        }
      ],
      "stateMutability": "view",
      "type": "function"
    },
    {
      "inputs": [],
      "name": "fund",
      "outputs": [],
      "stateMutability": "payable",
      "type": "function"
    },
    {
      "inputs": [
        {
          "internalType": "uint256",
          "name": "",
          "type": "uint256"
        }
      ],
      "name": "funders",
      "outputs": [
        {
          "internalType": "address",
          "name": "",
          "type": "address"
        }
      ],
      "stateMutability": "view",
      "type": "function"
    },
    {
      "inputs": [],
      "name": "minimumUsd",
      "outputs": [
        {
          "internalType": "uint256",
          "name": "",
          "type": "uint256"
        }
      ],
      "stateMutability": "view",
      "type": "function"
    },
    {
      "inputs": [],
      "name": "owner",
      "outputs": [
        {
          "internalType": "address",
          "name": "",
          "type": "address"
        }
      ],
      "stateMutability": "view",
      "type": "function"
    },
    {
      "inputs": [],
      "name": "priceFeed",
      "outputs": [
        {
          "internalType": "contract AggregatorV3Interface",
          "name": "",
          "type": "address"
        }
      ],
      "stateMutability": "view",
      "type": "function"
    },
    {
      "inputs": [],
      "name": "withdraw",
      "outputs": [],
      "stateMutability": "nonpayable",
      "type": "function"
    }
  ],
  "transactionHash": "0xe20690d15ec50fa10c0a23559ed7a6dc7a0655bfa057108774f576b658299b1f",
  "args": [
    "0xD4a33860578De61DBAbDc8BFdb98FD742fA7028e"
  ],
  "numDeployments": 1,
  "solcInputHash": "95ffabb3da966cdc807b8b7f3c8b0a58",
  "bytecode": "0x60806040526802b5e3af16b188000060005534801561001d57600080fd5b5060405162001065380380620010658339818101604052810190610041919061012c565b33600360006101000a81548173ffffffffffffffffffffffffffffffffffffffff021916908373ffffffffffffffffffffffffffffffffffffffff16021790555080600460006101000a81548173ffffffffffffffffffffffffffffffffffffffff021916908373ffffffffffffffffffffffffffffffffffffffff16021790555050610159565b600080fd5b600073ffffffffffffffffffffffffffffffffffffffff82169050919050565b60006100f9826100ce565b9050919050565b610109816100ee565b811461011457600080fd5b50565b60008151905061012681610100565b92915050565b600060208284031215610142576101416100c9565b5b600061015084828501610117565b91505092915050565b610efc80620001696000396000f3fe6080604052600436106100705760003560e01c8063741bef1a1161004e578063741bef1a146100f45780638da5cb5b1461011f578063b60d42881461014a578063dc0d3dff1461015457610070565b8063098de820146100755780633ccfd60b146100a05780633e47d6f3146100b7575b600080fd5b34801561008157600080fd5b5061008a610191565b60405161009791906107d4565b60405180910390f35b3480156100ac57600080fd5b506100b5610197565b005b3480156100c357600080fd5b506100de60048036038101906100d99190610852565b610473565b6040516100eb91906107d4565b60405180910390f35b34801561010057600080fd5b5061010961048b565b60405161011691906108de565b60405180910390f35b34801561012b57600080fd5b506101346104b1565b6040516101419190610908565b60405180910390f35b6101526104d7565b005b34801561016057600080fd5b5061017b6004803603810190610176919061094f565b6105f9565b6040516101889190610908565b60405180910390f35b60005481565b600360009054906101000a900473ffffffffffffffffffffffffffffffffffffffff1673ffffffffffffffffffffffffffffffffffffffff163373ffffffffffffffffffffffffffffffffffffffff1614610227576040517f08c379a000000000000000000000000000000000000000000000000000000000815260040161021e906109d9565b60405180910390fd5b600360009054906101000a900473ffffffffffffffffffffffffffffffffffffffff1673ffffffffffffffffffffffffffffffffffffffff163373ffffffffffffffffffffffffffffffffffffffff16146102b7576040517f08c379a00000000000000000000000000000000000000000000000000000000081526004016102ae906109d9565b60405180910390fd5b60005b600180549050811015610363576000600182815481106102dd576102dc6109f9565b5b9060005260206000200160009054906101000a900473ffffffffffffffffffffffffffffffffffffffff1690506000600260008373ffffffffffffffffffffffffffffffffffffffff1673ffffffffffffffffffffffffffffffffffffffff1681526020019081526020016000208190555050808061035b90610a57565b9150506102ba565b50600067ffffffffffffffff81111561037f5761037e610aa0565b5b6040519080825280602002602001820160405280156103ad5781602001602082028036833780820191505090505b50600190805190602001906103c3929190610714565b5060003373ffffffffffffffffffffffffffffffffffffffff16476040516103ea90610b00565b60006040518083038185875af1925050503d8060008114610427576040519150601f19603f3d011682016040523d82523d6000602084013e61042c565b606091505b5050905080610470576040517f08c379a000000000000000000000000000000000000000000000000000000000815260040161046790610b61565b60405180910390fd5b50565b60026020528060005260406000206000915090505481565b600460009054906101000a900473ffffffffffffffffffffffffffffffffffffffff1681565b600360009054906101000a900473ffffffffffffffffffffffffffffffffffffffff1681565b60005461050f600460009054906101000a900473ffffffffffffffffffffffffffffffffffffffff163461063890919063ffffffff16565b1015610550576040517f08c379a000000000000000000000000000000000000000000000000000000000815260040161054790610bcd565b60405180910390fd5b6001339080600181540180825580915050600190039060005260206000200160009091909190916101000a81548173ffffffffffffffffffffffffffffffffffffffff021916908373ffffffffffffffffffffffffffffffffffffffff16021790555034600260003373ffffffffffffffffffffffffffffffffffffffff1673ffffffffffffffffffffffffffffffffffffffff16815260200190815260200160002081905550565b6001818154811061060957600080fd5b906000526020600020016000915054906101000a900473ffffffffffffffffffffffffffffffffffffffff1681565b60008061064483610674565b90506000670de0b6b3a7640000858361065d9190610bed565b6106679190610c76565b9050809250505092915050565b6000808273ffffffffffffffffffffffffffffffffffffffff1663feaf968c6040518163ffffffff1660e01b815260040160a06040518083038186803b1580156106bd57600080fd5b505afa1580156106d1573d6000803e3d6000fd5b505050506040513d601f19601f820116820180604052508101906106f59190610d34565b5050509150506402540be4008161070c9190610daf565b915050919050565b82805482825590600052602060002090810192821561078d579160200282015b8281111561078c5782518260006101000a81548173ffffffffffffffffffffffffffffffffffffffff021916908373ffffffffffffffffffffffffffffffffffffffff16021790555091602001919060010190610734565b5b50905061079a919061079e565b5090565b5b808211156107b757600081600090555060010161079f565b5090565b6000819050919050565b6107ce816107bb565b82525050565b60006020820190506107e960008301846107c5565b92915050565b600080fd5b600073ffffffffffffffffffffffffffffffffffffffff82169050919050565b600061081f826107f4565b9050919050565b61082f81610814565b811461083a57600080fd5b50565b60008135905061084c81610826565b92915050565b600060208284031215610868576108676107ef565b5b60006108768482850161083d565b91505092915050565b6000819050919050565b60006108a461089f61089a846107f4565b61087f565b6107f4565b9050919050565b60006108b682610889565b9050919050565b60006108c8826108ab565b9050919050565b6108d8816108bd565b82525050565b60006020820190506108f360008301846108cf565b92915050565b61090281610814565b82525050565b600060208201905061091d60008301846108f9565b92915050565b61092c816107bb565b811461093757600080fd5b50565b60008135905061094981610923565b92915050565b600060208284031215610965576109646107ef565b5b60006109738482850161093a565b91505092915050565b600082825260208201905092915050565b7f596f7520617265206e6f7420746865206f776e65722100000000000000000000600082015250565b60006109c360168361097c565b91506109ce8261098d565b602082019050919050565b600060208201905081810360008301526109f2816109b6565b9050919050565b7f4e487b7100000000000000000000000000000000000000000000000000000000600052603260045260246000fd5b7f4e487b7100000000000000000000000000000000000000000000000000000000600052601160045260246000fd5b6000610a62826107bb565b91507fffffffffffffffffffffffffffffffffffffffffffffffffffffffffffffffff821415610a9557610a94610a28565b5b600182019050919050565b7f4e487b7100000000000000000000000000000000000000000000000000000000600052604160045260246000fd5b600081905092915050565b50565b6000610aea600083610acf565b9150610af582610ada565b600082019050919050565b6000610b0b82610add565b9150819050919050565b7f43616c6c206661696c6564000000000000000000000000000000000000000000600082015250565b6000610b4b600b8361097c565b9150610b5682610b15565b602082019050919050565b60006020820190508181036000830152610b7a81610b3e565b9050919050565b7f4469646e742073656e6420656e6f756768206d6f6e6579000000000000000000600082015250565b6000610bb760178361097c565b9150610bc282610b81565b602082019050919050565b60006020820190508181036000830152610be681610baa565b9050919050565b6000610bf8826107bb565b9150610c03836107bb565b9250817fffffffffffffffffffffffffffffffffffffffffffffffffffffffffffffffff0483118215151615610c3c57610c3b610a28565b5b828202905092915050565b7f4e487b7100000000000000000000000000000000000000000000000000000000600052601260045260246000fd5b6000610c81826107bb565b9150610c8c836107bb565b925082610c9c57610c9b610c47565b5b828204905092915050565b600069ffffffffffffffffffff82169050919050565b610cc681610ca7565b8114610cd157600080fd5b50565b600081519050610ce381610cbd565b92915050565b6000819050919050565b610cfc81610ce9565b8114610d0757600080fd5b50565b600081519050610d1981610cf3565b92915050565b600081519050610d2e81610923565b92915050565b600080600080600060a08688031215610d5057610d4f6107ef565b5b6000610d5e88828901610cd4565b9550506020610d6f88828901610d0a565b9450506040610d8088828901610d1f565b9350506060610d9188828901610d1f565b9250506080610da288828901610cd4565b9150509295509295909350565b6000610dba82610ce9565b9150610dc583610ce9565b9250827f7fffffffffffffffffffffffffffffffffffffffffffffffffffffffffffffff0482116000841360008413161615610e0457610e03610a28565b5b817f80000000000000000000000000000000000000000000000000000000000000000583126000841260008413161615610e4157610e40610a28565b5b827f80000000000000000000000000000000000000000000000000000000000000000582126000841360008412161615610e7e57610e7d610a28565b5b827f7fffffffffffffffffffffffffffffffffffffffffffffffffffffffffffffff0582126000841260008412161615610ebb57610eba610a28565b5b82820290509291505056fea2646970667358221220cd4b9f06101d798573dd01351abb072d6feb1b2d144b5eab2ae5447ed1b6fb0864736f6c63430008080033",
  "devdoc": {
    "kind": "dev",
    "methods": {},
    "version": 1
  },
  "userdoc": {
    "kind": "user",
    "methods": {},
    "version": 1
  },
  "storageLayout": {
    "storage": [
      {
        "astId": 56,
        "contract": "contracts/Fund.sol:Fund",
        "label": "minimumUsd",
        "offset": 0,
        "slot": "0",
        "type": "t_uint256"
      },
      {
        "astId": 59,
        "contract": "contracts/Fund.sol:Fund",
        "label": "funders",
        "offset": 0,
        "slot": "1",
        "type": "t_array(t_address)dyn_storage"
      },
      {
        "astId": 63,
        "contract": "contracts/Fund.sol:Fund",
        "label": "addressToAmountFunded",
        "offset": 0,
        "slot": "2",
        "type": "t_mapping(t_address,t_uint256)"
      },
      {
        "astId": 65,
        "contract": "contracts/Fund.sol:Fund",
        "label": "owner",
        "offset": 0,
        "slot": "3",
        "type": "t_address"
      },
      {
        "astId": 68,
        "contract": "contracts/Fund.sol:Fund",
        "label": "priceFeed",
        "offset": 0,
        "slot": "4",
        "type": "t_contract(AggregatorV3Interface)45"
      }
    ],
    "types": {
      "t_address": {
        "encoding": "inplace",
        "label": "address",
        "numberOfBytes": "20"
      },
      "t_array(t_address)dyn_storage": {
        "base": "t_address",
        "encoding": "dynamic_array",
        "label": "address[]",
        "numberOfBytes": "32"
      },
      "t_contract(AggregatorV3Interface)45": {
        "encoding": "inplace",
        "label": "contract AggregatorV3Interface",
        "numberOfBytes": "20"
      },
      "t_mapping(t_address,t_uint256)": {
        "encoding": "mapping",
        "key": "t_address",
        "label": "mapping(address => uint256)",
        "numberOfBytes": "32",
        "value": "t_uint256"
      },
      "t_uint256": {
        "encoding": "inplace",
        "label": "uint256",
        "numberOfBytes": "32"
      }
    }
  }
}